:060000000C9468000C9452
:1000060000000C9400000C9400000C9400000C946A
:1000160000000C9400000C9400000C9400000C945A
:1000260000000C9400000C9400000C9400000C944A
:10003600C5000C9400000C9400000C9400000C9475
:1000460000000C9400000C9400000C9400000C942A
:1000560000000C9400000C9400000C9400000C941A
:1000660000000C9400000C9400000C9400000C940A
:1000760000000C9400001027E80364000A00010049
:10008600001000011000010058020000204000008E
:10009600204033332340010001002D4E414E0049DC
:1000A6004E460000020006028E0004002602900062
:1000B60004002A02940004002E0298000100360271
:1000C6009C0001003A029E000000F894EE27EFBB68
:1000D600F1E0F5BFE5BFF8E1A895A4B7A77FA4BFF7
:1000E600F0936000E09360008DE0A2E0BB27ED9303
:1000F6008A95E9F780E094E0A0E0B1E0ED930197FE
:10010600E9F7EAEAF0E085919591009761F0A5910B
:10011600B59105901590BF01F00105900D920197DC
:10012600E1F7FB01F0CFE0E0EEBBEABDEBBDEFEFA0
:10013600EDBFE4E0EEBFC0E0D2E00C941A02AA9351
:10014600E881E770E883E064E0937C00E0917A0060
:10015600E064E0937A00E0917A00E074E1F7E091E0
:100166007A00E061E0937A00E0917800F0917900FE
:100176006627772742D3AAE0B7ED83EA9BE3C6D387
:10018600219608950A921A92FA926A937A938A931A
:100196009A93AA93BA93EA93FA93EFB7EA93A3D200
:1001A600F894A4E0CCDFE0930202F093030260939C
:1001B600040270930502EDD1EE5FFF4F6F4F7F4F44
:1001C600E0931E02F0931F026093200270932102B7
:1001D600E9D18F01F2D110F402D20CF00CC0E091FB
:1001E6002A02F0912B0260912C0270912D0204D20A
:1001F60010F40CD214D2E1D109F008F406C018D2DA
:10020600FBD109F008F401C001C002C0FFD119D228
:100216000B3FE0E01E070CF47DC0CFD109F008F4D7
:1002260005C018D2109711F4DAD10CF073C0E1E0D2
:10023600F0E0E0930802F09309025E9AB3D1E093EE
:100246000602F09307020BD2E0913802F0913902D0
:10025600309789F00ED220E030E02A30E0E03E0709
:1002660054F40DD2A0910602B0910702A083B18387
:100276002F5F3F4FF2CFE0913602F0913702309771
:1002860061F0E0E0E0933602E0933702E1E0F0E06F
:10029600E0933802F09339027DC040E050E020E060
:1002A60030E02930E0E03E07DCF4E9D10F01D90166
:1002B600AA0FBB1FA45FBD4FED91FD91D001ED9339
:1002C600FC93F901AAE0B2E0EE0FFF1FAE0FBF1FCD
:1002D600ED91FC9111974E0F5F1F2F5F3F4FE1CFBE
:1002E600E0910602F0910702E0931C02F0931D02D2
:1002F600E0911C02F0911D024E0F5F1FDA01EAE049
:10030600F0E02BD2AF01A0E6BAEE14D2E0930002E1
:10031600F093010252D118F49DD1119709F025C02E
:100326005E98E0E0E0930802E0930902B0D180D144
:1003360097D2E0933202F0933302609334027093C3
:100346003502A0913202B09133028091340290912D
:100356003502E0E0F0E060E070E426D398D187D281
:100366009FD1A7D16ED1A5D15AD1053CE9E01E0790
:100376008CF0E6E6F6E666E270E492D1A3D161D1AE
:10038600A1D14DD16CD1E1E0F0E0E0933602F093DB
:1003960037026FD17894AED12696E991EFBFF991E5
:1003A600E991B991A9919991899179916991F99078
:1003B600199009901895BA93AA93E881F981309714
:1003C60011F4EEE731C0A881B981119711F4E0E389
:1003D6002BC0A881B981129711F4EDE625C0A8813A
:1003E600B981139711F4E9E71FC0A881B981149761
:1003F60011F4E3E319C0A881B981159711F4EBE56F
:1004060013C0A881B981169711F4EFE50DC0A88134
:10041600B981179711F4E1E707C0A881B981189748
:1004260011F4EFE701C0EBE7E8B92296089540E042
:1004360050E041D078945E98A89549D18ED11E2F70
:10044600113020F044D18ED1DF0101C047D1EAE05E
:10045600F0E083D10E2F42D1EAE0F0E083D13E2FC7
:10046600E3E0F0E0E417F50711F440E050E0E2E0E5
:10047600F0E0E417F50739F4A32FBB279CDFEBE088
:10048600E2B94F5F5F4FE1E0F0E0E417F50739F4BA
:10049600A02FBB2790DFEDE0E2B94F5F5F4F042E40
:1004A600052A39F4A12FBB2786DFEEE0E2B94F5FBC
:1004B6005F4FC2CFFFCFE0E8E0936100E0E0E0935A
:1004C6006100EFE0E2B9E1B9E0E0E5B9E4B9E8B925
:1004D600EFEFE7B9E0E2EBB9E0E5EAB9E0E0E4BD69
:1004E600E5BDE6BDE7BDE8BDE0938000EDE0E09345
:1004F6008100E0E0E0938500E0938400E0938700CC
:10050600E0938600E0938900E6E2E0938800E0E06D
:10051600E0938B00E0938A00E093B600E093B0008E
:10052600E093B100E093B200E093B300E093B4002F
:10053600E0936900EDBBE0936800E0936E00E2E0B3
:10054600E0936F00E0E0E0937000E093C000E8ED18
:10055600E093C100E6E0E093C200E0E0E093C5006E
:10056600E1E8E093C400E0E0E093C900E0E8E0BF22
:10057600E0E0E0937B00E5E9E0937A00E0E0E093D9
:100586007F00A895E8E1E0936000E8E0E093600072
:100596000895E0911E02F0911F0260912002709171
:1005A60021020895A0912202B0912302E0911E0239
:1005B600F0911F02EA1BFB0B0895E0912E02F091C9
:1005C6002F026091300270913102A0910202B09127
:1005D600030280910402909105022AD20895A09107
:1005E6000602B0910702E5E0F0E0B7D0A3E0B0E084
:1005F6009CD0E017F1070895A0910202B091030282
:10060600809104029091050213D20895E0910202AE
:10061600F091030260910402709105020895E0933F
:100626002A02F0932B0260932C0270932D020895F8
:10063600E0912602F091270260912802709129022A
:100646000895E0932602F0932702609328027093A0
:1006560029020895A0910802B0910902089599DF30
:10066600E0932202F0932302609324027093250202
:100676000895E0E0E0933802E09339020895F90125
:10068600AAE0B2E0EE0FFF1FEA0FFB1F0895A0914C
:100696002A02B0912B0280912C0290912D0208958E
:1006A600E0932E02F0932F02609330027093310292
:1006B6000895E0912E02F0912F0260913002709120
:1006C60031020895E3E3F3E363E270E40895A09151
:1006D6000002B0910102E4E6F0E00895A091000264
:1006E600B091010208955A934A933A932A931A9322
:1006F6000A9308955D814C813B812A811981088185
:100706000895F195E195F0400895F09560957095FE
:10071600E195FF4F6F4F7F4F0895FA9FF02DEB9FA6
:10072600F00DEA9FE02DF10D08952AD0F6DF0EF4C4
:10073600E8DF08950024112490E1AA0FBB1F001CD6
:10074600111C0E1A1F0A18F40E0E1F1E01C0A160FE
:100756009A9599F7FD01D001089512D0EBDF0EF4BA
:10076600D0DF0895E894B7FF04C0B195A195B040D5
:100776006894F7FDC6DFDEDFFD010EF4C2DF0895E3
:10078600E894F7FF02C0BDDF6894B7FF06C0B195D5
:10079600A195B04000F8039400FA0895552342F459
:1007A600503811F4E0FF04C03196691F791F6BF0D1
:1007B60050E8572711F45F9398C05F3F31F0660FFA
:1007C600000C57956795752F08955F9300200AF0E2
:1007D60097C090C050E8192E1522880F991F9527AB
:1007E600550F879550E8072E0522660F771F752748
:1007F600550F67950895689401C0E8943097604056
:100806007040B1F0002426F0772312F400947DDFC7
:10081600172E7EE1112032F07A95EE0FFF1F661F2C
:10082600111CF9CFEF2FF62F612D5F93C1DF5F917A
:1008360008954F93AF01FD01DA01AB01BC01CA0176
:10084600402D012C142E4F910895EA0FFB1F681FAF
:100856000895E095F0956095EF5FFF4F6F4F08950F
:100866005F93B8DF903871F150E8152604C05F93A6
:10087600B1DF903839F1703821F1572F591B2BF120
:1008860012F4D7DFFACF583118F0AA27BB278827EA
:10089600583028F0AB2FB82F88275850F9CF55235A
:1008A60029F08695B795A7955A95D9F7502D5125D4
:1008B60072F0CBDF38F46795F795E795739513F4E7
:1008C6001FC0B7DF75DF5F910895D8F7FBCFEA1B2E
:1008D600FB0B680B51F010F40094BBDF662392F318
:1008E600EE0FFF1F661F7A95CBF7EE27FF27BF0196
:1008F6005F910895EFEFFFEF6FE77FEF5F91089548
:10090600EFEFFFEF6FE77FE75F9108955F9362DF99
:10091600703859F3903849F301240894791F23F469
:1009260024F300203AF3ECCF0F921F932F933F93BB
:100936004F93112722279927689FA0018F9F302D5B
:10094600410D591F6B9F300D411D591F8E9F27D09A
:10095600BF9F25D06A9F23D0BE9F1DD0AF9F1BD0BF
:10096600AE9F110D291F391F491F591FE32FF42F61
:10097600652F522F4F913F912F911F910F90662314
:100986002AF0550FEE1FFF1F661F02C073954BF22C
:1009960005DF5F910895100D211D391F02C0200D3E
:1009A600311D491F591F08955F9314DF703821F4D4
:1009B60011200AF49FCFA4CF903809F496CF0124D2
:1009C6000894970B1BF4D4F30020F3CF792F1F93D1
:1009D6002F933F934F931124112722273327A901E1
:1009E60090E2AE17BF078607410730F0AE1BBF0B7C
:1009F600860B410B089401C08894551F221F331F94
:100A0600111CAA1FBB1F881F441F9A9551F7F90195
:100A1600612D4F913F912F911F91662332F0550F13
:100A2600EE1FFF1F661F7A954BF2B8DE5F910895A1
:100A360099239AF0772342F0971748F029F4AE17D6
:100A4600BF07860720F031F098948894089598940B
:100A5600089408951894889408957723C2F79717F1
:100A660098F3A9F7EA17FB07680788F399F3ECCF21
:00000001FF
